:020000040800F2
:10000000886E002001180008091800080B18000865
:100010000D1800080F180008111800080000000053
:10002000000000000000000000000000235F000846
:100030001518000800000000C15D0008255F0008D9
:100040001B1800081B1800081B1800081B180008C4
:100050001B1800081B1800081B1800081B180008B4
:100060001B1800081B1800081B1800081B180008A4
:100070001B1800081B1800081B1800081B18000894
:10008000A92B00081B1800081B1800081B180008E3
:10009000796400081B1800081B1800081B180008CA
:1000A0001B1800081B1800081B1800081B18000864
:1000B0001B1800081B1800081B1800081B18000854
:1000C0001B1800081B1800081B1800081B18000844
:1000D0001B1800081B1800081B1800081B18000834
:1000E0001B1800081B1800081B1800081B18000824
:1000F0001B1800081B1800081B1800081B18000814
:100100000000000000000000000000001B180008B4
:100110001B1800081B1800081B1800081B180008F3
:100120001B1800081B1800081B1800081B180008E3
:100130001B1800081B180008000000000000000049
:100140001B1800081B1800081B18000800000000FE
:10015000000000000000000000000000000000009F
:1001600000000000000000001B1800081B18000819
:100170001B18000800000000000000000000000044
:10018000000000001B180008DFF80CD000F006F893
:100190000048004755AB0008886E0020064C074D0C
:1001A00006E0E06840F0010394E807009847103447
:1001B000AC42F6D3FFF7ECFFE001000800020008B4
:1001C00002E008C8121F08C1002AFAD17047704720
:1001D000002001E001C1121F002AFBD1704700007E
:1001E00000020008000000209C020000FC2800081B
:1001F000240200089C020020EC6B0000D0010008E3
:10020000016902B2020A150908D1027C010A130130
:100210007E5A6404319AC004094573014F031912D0
:040220007A00000060
:020000040800F2
:101800000648804706480047FEE7FEE7FEE7FEE79A
:10181000FEE7FEE7FEE7FEE7FEE7FEE731600008D1
:1018200089010008202A04DB203A21FA02F0002175
:10183000704721FA02F3D040C2F1200291400843E0
:101840001946704740EA01039B0703D009E008C925
:10185000121F08C0042AFAD203E011F8013B00F875
:10186000013B521EF9D27047D2B201E000F8012BC1
:10187000491EFBD270470022F6E710B513460A4610
:1018800004461946FFF7F0FF204610BD10B50022B0
:1018900000E0521C835C8C5CA34201D1002BF8D188
:1018A000D8B2E1B2401A10BD30B50446002003465C
:1018B00000E05B1C934203D2E05CCD5C401BF8D09F
:1018C00030BD034611F8012B00F8012B002AF9D195
:1018D0001846704770B50F4D00B92868002412E013
:1018E0000A4602E09E4203D0521C1378002BF9D125
:1018F000DAB2224305D02BB124B1002100F8011B3C
:1019000004E00446401C0678002EE9D128602046F9
:1019100070BD00008C0200200FB400B58DB010A97E
:1019200009900B9000914FF0FF300A9000200C902E
:1019300005480690054807906A4609A80F9900F0E7
:10194000DFFC0DB05DF814FB1D2300083B230008ED
:101950002DE9FF5F1D464FF0FF3BD5E9014691465B
:101960005F464FF00008A9697F1C01988847296AE3
:10197000824688470028F6D1BAF1FF3F0CD024F404
:10198000C064002E19DD600614D5BAF12B0F09D002
:10199000BAF12D0F0ED103E0584604B0BDE8F09F18
:1019A00044F48064A9697F1C01988847761E8246AA
:1019B000002E02DDBAF1300F03D0B9F1000F26D0AE
:1019C00032E0A969761E44F400747F1C01988847B0
:1019D0008246002E05DDBAF1780F06D0BAF1580F15
:1019E00003D0B9F1000F10D01EE0B9F1000F02D002
:1019F000B9F1100F18D1A969761E24F400747F1C68
:101A0000019888478246102002E0082000E00A2062
:101A1000814609E008FB0908A969761E44F40074B0
:101A20007F1C019888478246002E05DD49465046B6
:101A300000F052FC0028EDDAE96901988847A0051A
:101A400002D46FF00100A8E7E00725D1600613D5A6
:101A5000600502D5C8F1000000E0404629680A1D73
:101A60002A600968220501D5087015E0220701D512
:101A7000088011E008600FE02868011D29600068F7
:101A8000210502D580F8008006E0210702D5A0F8E4
:101A9000008001E0C0F8008038467EE72DE9FF4F66
:101AA000087883B09946FF2805D0491C2D2804D01A
:101AB0000024002008E000200BE00124F9E700EBFF
:101AC000800003EB4000491C0B78FF2BF7D104B1D9
:101AD000404200230293147819461D462D2C01D054
:101AE0002B2C04D1521C2D2C13D000240294AA4676
:101AF0001478FF2C0FD00A25A3FB057801FB058184
:101B00004FF0000C03FB0C11521CE3194AEB0101CE
:101B1000EEE70124EAE7814453EA010002D019F517
:101B2000C87F06DA03980021C0E9001107B0BDE8BC
:101B3000F08F0025AE4E2F46DFF8B882184600F031
:101B4000F1FCCDE90001B9F1000002DAC9F10004AD
:101B500000E004460023A74A1AEB030B42EB045AA9
:101B600012E0E00707D02A4633463846414600F0E7
:101B7000ECF9074688462A4633461046194600F0D7
:101B8000E4F905460E466410002CEAD1DDE90001B7
:101B9000B9F1000F5A46534606DA00F048FA3A46C1
:101BA000434600F044FA05E000F0CFF93A464346D8
:101BB00000F0CBF9029A0AB181F00041039AC2E920
:101BC0000001B3E72DE9FF4F1F468DB0D7E901466D
:101BD0004FF0FF382E2045464FF000090B90B969B1
:101BE0006D1C0E988847396A824688470028F6D1CE
:101BF000BAF1FF3F0AD024F4D064002E11DDBAF10F
:101C00002B0F08D0BAF12D0F0BD102E0404611B0D6
:101C10008DE744F48064B9696D1C0E98884782464C
:101C2000761E6946600501D52D2000E02B208DF839
:101C3000000001F1010B0DF1200809E0B9696D1CEC
:101C40000E98884782460F9844F40074761E05600B
:101C5000002E02DDBAF1300FF0D00B998A453ED14B
:101C600044F0800406E00F99681CA9F1010944F4CE
:101C700000740860B9696D1C761E0E98884782460C
:101C80003028F0D02BE00B998A4505D1200603D4EB
:101C900044F08004761E18E0504605F059F808B369
:101CA0000DF11301761E44F400748B4508D2AAF19D
:101CB00030000BF8010B200607D5A9F1010003E065
:101CC000200602D409F101008146A00502D50F9932
:101CD000681C0860B9696D1C0E9888478246002E02
:101CE000D1DC53E0002E51DDBAF1650F02D0BAF11C
:101CF000450F4BD1A00549D5B9696D1C24F440743A
:101D0000761E0E9888478246002E0CDD2B2804D0C4
:101D1000BAF12D0F07D144F48074B9696D1C0E9887
:101D200088478246761EE00501D52D2100E02B2153
:101D300008F8011BCDF82C8021E00DF12901761E59
:101D400044F4007488450CD2AAF1300010F0FF0072
:101D500088F8000002D10B99884509D908F10108DB
:101D600006E0E00501D5244801E042F20F7081460B
:101D7000B9696D1C0E98884782460F980560002E41
:101D800004DD504604F0E4FF0028D6D1F9690E982E
:101D90008847FF208BF8000088F80000002006909C
:101DA00007904B466A4608A906A8FFF777FEA005EC
:101DB00002D46FF001002AE714F0240F0AD0E007E4
:101DC00014D1DDE906123868031D3B600068C0E9E4
:101DD00000120BE0DDE9060100F0FAF90146E00728
:101DE00004D13868021D3A600068016028460EE799
:101DF000000014400000F03FF1D8FFFF2DE9FE4F36
:101E0000804681EA0300C00F0C46009021F000419B
:101E100023F00045B8EB0200A94105D24046214617
:101E200090461C460B46024623F00040104347D024
:101E3000270DC7F30A00C3F30A510290401A01901C
:101E400040286BDAC3F3130040F4801B00989246DD
:101E500020B10023D2EB030A63EB0B0B0198594628
:101E6000C0F14002504600F016FA06460D465046B4
:101E70005946019A00F01EFA10EB08006141002457
:101E800087EA115284EAE7731A4340D0009A62B39A
:101E9000019A012A4FEA075215DC001B61EB02018F
:101EA0004FF0004202EA0752CDE90042001C41F522
:101EB000801132462B4600F0A3FA03B0BDE8F08F44
:101EC00040462146F9E7001B61EB0201001C41F589
:101ED000801300185B412018A2F5001747EB03019F
:101EE00040EAD570B6196D4111E06D084FEA36062B
:101EF00045EAC0754FEA0752001B61EB0201001C66
:101F000041F5801149084FEA30000019514132462D
:101F10002B4603B0BDE8F04F00F063BA00980122F1
:101F200040000023D0EB020263EBE07300982146EF
:101F30004FEAE074B8EB000061EB0401E9E783F0DD
:101F400000435BE781F0004158E72DE9FE4F81EA4D
:101F5000030404F0004421F0004100944FF0000B12
:101F600023F0004350EA01045ED052EA03045BD040
:101F7000C3F30A54C1F30A552C44A4F2F334019478
:101F8000A0FB0254C1F3130141F48011C3F3130306
:101F900043F4801301FB024400FB034E840A970ABA
:101FA00044EA815447EA8357A4FB076802958D0AE7
:101FB00005FB07854FEA932C04FB0C542705029D73
:101FC0004FEA065847EA1637B5EB08056EEB070CE3
:101FD000870E920E47EA811742EA8312A7FB02019D
:101FE000B6EB0B0164EB00042B0D43EA0C335E18D7
:101FF00044EB1C50DA465146E7FB0201C5F31304DB
:102000004FEA0B3343EA14534FEA0432019C43EA8C
:102010000603A4F10C040294009CCDE900B400F086
:10202000EFF903B0BDE8F08F00200146F9E72DE994
:10203000F04D81EA030404F0004B21F00045144602
:102040004FF0000A23F0004150EA050220D054EA84
:1020500001021DD0C5F30A570246C5F31303C1F3AD
:102060001300C1F30A5640F4801543F48013A7EB24
:102070000608101BD64608F2FD3873EB050002D3A4
:1020800008F1010801E092185B41B8F1000F03DA92
:1020900000200146BDE8F08D00204FF48011064677
:1020A00084460EE0171B73EB050705D3121B63EB89
:1020B000050306434CEA010C49084FEA3000921828
:1020C0005B4150EA0107EDD152EA030012D082EAE7
:1020D000040083EA0501084305D0101BAB4106D27A
:1020E0000122002306E000224FF0004302E06FF0DF
:1020F000010253101AEB06004CEB085110EB0A00DA
:1021000041EB0B01BDE8F04D00F06BB90EB5C10F0E
:1021100080EAE0700844CA07002140F233438DE8AA
:102120000E000A460B4600F06BF903B000BD0EB579
:1021300040F2334102910021CDE900110A460B46DD
:1021400000F05EF903B000BDC1F30A5210B5C1F34F
:10215000130140F2FF3341F480119A4201DA00206A
:1021600010BD40F233439A42A2F2334203DC5242A2
:10217000FFF758FB10BD904010BD00F0004230F05A
:1021800000400AD0C10D01F56071C0F3160042EAAB
:102190000151C208400711437047002001467047B3
:1021A00030B5041E71F1000404DB4FF000444042DE
:1021B00064EB0101141E73F1000405DB1C464FF0B3
:1021C0000043524263EB04038B4208BF824230BD9E
:1021D00001F0004330B421F0004150EA010206D082
:1021E0000A0DA2F56072C1F31301002A02DC30BCB3
:1021F00000207047440F44EAC104C100E01830BC1D
:1022000000EBC25000F0AAB830B50B4601460020E2
:102210002022012409E021FA02F59D4205D303FAA8
:1022200002F5491B04FA02F52844151EA2F1010229
:10223000F1DC30BD2DE9F05F0546002092469B465B
:1022400088460646814640241BE0284641464746CC
:102250002246FFF7E7FA53465A46C01A914110D377
:1022600011461846224600F016F82D1A67EB0108B1
:102270004F4622460120002100F00DF817EB00091F
:102280004E41201EA4F10104DFDC484631462A46B7
:102290004346BDE8F09F202A04DB203A00FA02F111
:1022A000002070479140C2F1200320FA03F3194344
:1022B00090407047202A06DBCB17203A41FA02F003
:1022C00043EAE07306E041FA02F3D040C2F1200293
:1022D00091400843194670473A2800D2303820F020
:1022E0002002412A01D3A2F13700884201D34FF0E6
:1022F000FF30704702681144137801601846704738
:10230000D1600449516104491162002111611146F3
:1023100000F04AB9F52200089D250008426842B144
:10232000016811F8013B23B1521EC0E900121846A2
:1023300070470121C160881E704742685AB1C36866
:10234000016843B983688B4205D0491E521CC0E91D
:102350000012002070474FF0FF3070470029A8BFDF
:102360007047401C490008BF20F00100704710B4BE
:10237000B0FA80FC00FA0CF050EA010404BF10BC73
:10238000704749B1CCF1200421FA04F411FA0CF1A0
:1023900018BF012121430843A3EB0C01CB1D4FEAD9
:1023A00000614FEA102042BF002010BC704700EBD4
:1023B000C35010440029A4BF10BC7047401C490002
:1023C00008BF20F0010010BC7047420005D0C0F3E8
:1023D000C7525242914201DC0020704700EBC150CD
:1023E000704710B5141E73F1000408DA401C41F167
:1023F000000192185B411A4301D120F0010010BD89
:102400002DE9F04D92469B4611B1B1FA81F202E0FE
:10241000B0FA80F220329046FFF73DFF04460F46A7
:1024200040EA0A0041EA0B0153465A46084313D0DA
:10243000114653EA010019D0C8F140025046FFF797
:10244000F1F905460E46504659464246FFF723FF2E
:10245000084305D0012004E020463946BDE8F08D50
:102460000020054346EAE0762C4337430A9863058B
:10247000E40AA0EB08000022FD0A44EA47540A30AF
:1024800002D500200146E9E7010510196941DDE99F
:10249000084500196941BDE8F04DA2E72DE9F0417A
:1024A000054621F000400C46284309D0C4F30A50E9
:1024B00040F23341884205DD28462146BDE8F081DF
:1024C0002846FBE740F2FE31884210DC0CDB4FEA85
:1024D000043040EA155050EA053105D0104804F0A8
:1024E000004101430020E9E700200146E6E7A0F2B1
:1024F00033404642C6F1400228462146FFF7CBFE54
:1025000007468846284621463246FFF78BF9434660
:102510003A46FFF766FF3246BDE8F041FFF7BBBE23
:102520000000F03F0EB540F2334202920022CDE9A6
:1025300000221346FFF764FF03B000BDC1F30A5247
:10254000C1F3130140F2FF3341F480119A4202DAE1
:1025500000200146704740F233439A42A2F23342D0
:1025600002DC5242FFF75EB9FFF795BE30B5041E9C
:1025700071F1000404DB4FF00044404264EB0101C0
:10258000141E73F1000405DB1C464FF00043524259
:1025900063EB0403994208BF904230BDC0B24FF4D0
:1025A000F05100F097B900002DE9F34F8BB04FF0D8
:1025B000000801F10C000C464FF0010B46460DF1EE
:1025C000080A01906269012101989047051E2DD0EB
:1025D000252D2CD0216A8847C0B16269012101985C
:1025E0009047216A88470028F7D1411E6269019807
:1025F000904700E0761CA1690B988847216A8847BC
:102600000028F7D1E1690B988847DBE7A1690B98AF
:1026100088470746A84201D1761CD3E7E1690B98A9
:1026200088477F1C02D1B8F1000F6FD046E1002728
:1026300062693D463946019890472A2804D162696B
:102640000121019890470125DFF8849262690121F8
:1026500001989047A0F130010A290AD24F45E5DCE4
:1026600007EB870100EB4107303FDFD445F0100551
:10267000ECE7E90601D46FF000476C280AD04C283B
:1026800014D0682815D06A280DD074281CD07A2858
:102690001AD01DE062690121019890476C2802D090
:1026A00045F0040514E045F002050DE045F0200575
:1026B0000AE06269012101989047682802D045F03C
:1026C000080505E045F4006562690121019890471D
:1026D000C4E9015765283DD019DC58287AD00CDCB4
:1026E000452837D004DC252826D0412831D131E0D7
:1026F00046282FD047282CD12CE05B2877D06128A2
:1027000028D063287CD0642823D15AE0D0E06F28F9
:1027100048D008DC66281DD067281BD0692821D046
:102720006E2816D127E0702845D0732868D0752808
:1027300047D078280DD14DE0A1690B988847054610
:1027400025283FF469AFE1690B9888476D1C3FF479
:102750006AAFB3E023466A466FF001000B99FFF7BA
:1027600031FA9EE045F040006060A80723464FF034
:10277000000236D43EE0E8077FF447AF2068011D31
:1027800021600068290501D506701BE7290701D5DE
:10279000068017E7A90703D5F117C0E9006111E723
:1027A00006600FE745F040006060A80723464FF041
:1027B000080216D41EE040F60E0125EA0100606012
:1027C00016E045F040006060A80723464FF00A027B
:1027D00007D40FE045F040006060A80708D5234605
:1027E00010226FF001000B99AFF3008059E007E071
:1027F000234610226FF001000B99FFF7A9F850E073
:102800004FF000094F464B46632802D05B2806D0A4
:1028100040E0E80601D40120A06001273AE06269A7
:102820000121019890475E2805D14FF001096269A6
:10283000494601989047216939B900210A46534613
:1028400043F82120491C0829FADBB0B3216969B992
:10285000C11700EBD16253110AEB830122F01F0272
:10286000821A01200B68904003430B6062690121CA
:10287000019890475D28E8D1B9F1000F09D00020F8
:10288000514651F82020D24341F82020401C08280E
:10289000F7DB02AB224600976FF001000B99AFF314
:1028A000008000280CDA401C08D1BBF1000F05D0D5
:1028B0004FF0FF300DB0BDE8F08FFFE74046F9E77D
:1028C000E90701D108F1010806444FF0000B79E651
:1028D000CCCCCC0C7F2801D9002208E0064A02EBC0
:1028E0005002C007127800D1120902F00F02012035
:1028F0009040084070470000F04B010870B58C18FC
:1029000010F8015B15F0070301D110F8013B2A1103
:1029100006D110F8012B03E010F8016B01F8016BF0
:102920005B1EF9D12B0705D40023521E0DD401F8EC
:10293000013BFAE710F8013BCB1A921C03E013F8B5
:10294000015B01F8015B521EF9D5A142D8D30020EA
:1029500070BD000070B504460068816801F0030195
:10296000012926D10168C90723D0816801F00D0132
:10297000012910D1816841F00201816021680320A2
:10298000086001F06BFD05460FE000BF01F066FD39
:10299000401B022809D9606C40F010006064A06CF4
:1029A00040F00100A064012070BD20688068C0076D
:1029B000ECD1002070BD000070B50446006881684D
:1029C00001F00301012902D10168C90720D1816802
:1029D000104A11420DD1816841F00101816001F07E
:1029E0003DFD05460FE000BF01F038FD401B022809
:1029F00009D9606C40F010006064A06C40F00100E8
:102A0000A064012070BD20680068C043C007EBD1FE
:102A1000002070BD3F00008010B54FF4D8720368ED
:102A200002EB01129B5813F00404436B9C60046892
:102A3000436BA45856D0E4085C6003689A58436B13
:102A400002F00202DA604FF4DA72036802EB01125C
:102A50009B58446B03F00F03236103689A58436B40
:102A6000C2F30722DA614FF4DC72036802EB011251
:102A70009B58446B237503689B58446B1B0A637512
:102A800003689B58446B1B0CA37503689A58436BEF
:102A9000120EDA754FF4DE72036802EB01129B58D6
:102AA000446B237603689B58446B1B0A6376036868
:102AB0009B58446B1B0CA37603689A58436B120E09
:102AC0000029DA76016810D00A6942F020020A6112
:102AD00001684A6922F010024A6190F839102229EF
:102AE0000CD024E0640D1C60A7E7CA6842F0200205
:102AF000CA6001684A6922F00202EDE701684A698A
:102B000022F480724A6101684A6922F400724A61C3
:102B100001684A6922F480624A6101684A6922F4C4
:102B200000624A6101684A6922F400424A6190F8F1
:102B30003910322906D0012180F8391000F040FF09
:102B4000002010BD1221F7E710B501684A6922F094
:102B500001024A6190F83910122918D101684A69B6
:102B600022F480724A6101684A6922F400724A6163
:102B700001684A6922F480624A6101684A6922F464
:102B800000624A6101684A6922F400424A6190F891
:102B90003910322906D0012180F8391001F02CF8C3
:102BA000002010BD2221F7E7014801F027B80000FE
:102BB0008004002010B5046863604368102B03682C
:102BC00003D099600068C26010BD9A600068C1605F
:102BD00010BD000006490020C8610648016941F0A7
:102BE00004010161016941F0400101617047000089
:102BF000A002002000200240064A0021D1610649BF
:102C00000A6942F002020A614861086940F0400026
:102C100008617047A002002000200240044B0022FF
:102C2000DA61044A136943F00103136101807047BC
:102C3000A0020020002002400A490020CA68D306F2
:102C4000094A04D5D06940F00200D0611020CB6859
:102C50005B0705D5D36943F00103D36140F004005D
:102C6000C860704700200240A002002070B50546F1
:102C700001F0F4FB0646104C09E0681C07D025B1B2
:102C800001F0ECFB801BA84201D9032070BDE06875
:102C9000C007F2D1E068800601D52020E060E0683E
:102CA000C00602D4E068400703D5FFF7C5FF012046
:102CB00070BD002070BD000000200240F0B595B04E
:102CC0000024009490F840202546012A19D00127BD
:102CD00080F8407003689A6852077CD44A681F26BF
:102CE000052A11D2D3F830C002EB420252009640BE
:102CF0002CEA060C0E6896404CEA060CC3F830C06D
:102D000035E0022015B0F0BD0A2A0FD2D3F834C046
:102D1000521F02EB4202520096402CEA060C0E684B
:102D200096404CEA060CC3F834C020E00F2A0FD2BC
:102D3000D3F838C00A3A02EB4202520096402CEA1D
:102D4000060C0E6896404CEA060CC3F838C00EE03C
:102D5000D3F83CC00F3A02EB4202520096402CEAF4
:102D6000060C0E6896404CEA060CC3F83CC002689C
:102D7000936813F00C0F4FF0070374D1D1F800E003
:102D8000BEF10A0F10D39669AEF10A0E0EEB4E0C8F
:102D900003FA0CFE26EA0E06D1F808E00EFA0CFE45
:102DA00046EA0E0696610FE0D2F814C00EEB4E060E
:102DB00003FA06FE2CEA0E0CD1F808E00EFA06FE25
:102DC0004CEA0E0CC2F814C002684E69D2F80CC06E
:102DD000CCF3C10C00E0FDE04FEA4C0C06FA0CF617
:102DE000D1F810E0DFF848C2BEF1010F42D0BEF1C9
:102DF000020F4DD0BEF1030F58D0BEF1040F63D0C7
:102E0000166E91F800C006F0F846B6EB8C6F03D151
:102E1000166E26F0004616660268566E91F800C0DF
:102E200006F0F846B6EB8C6F03D1566E26F00046DE
:102E300056660268966E91F800C006F0F846B6EB4A
:102E40008C6F03D1966E26F0004696660268D66EA9
:102E500091F800C006F0F846B6EB8C6F03D1D66E41
:102E600026F00046D6660268966806F00306012E34
:102E70003AD136E0D2F860E00EEA0C0E91F800C0CC
:102E800046EA8C664EEA060E4EF000461666EAE703
:102E9000D2F864E00EEA0C0E91F800C046EA8C66A7
:102EA0004EEA060E4EF000465666DCE7D2F868E0C1
:102EB0000EEA0C0E91F800C046EA8C664EEA060E49
:102EC0004EF000469666CEE7D2F86CE00EEA0C0EA5
:102ED00091F800C046EA8C664EEA060E4EF00046B7
:102EE000C0E71668F6077AD1CE68012E06D052F8F0
:102EF000B03F0E78B740BB43136021E052F8B06F8B
:102F000091F800C007FA0CF73E4316600A680A2AD7
:102F10000BD30668B769093A02EB420293409F431C
:102F20008B6893401F43B7610AE007687E69521CB3
:102F300002EB420293409E438B6893401E437E61A6
:102F400003684FF0A0473B4EBB4201D0B34201D1D2
:102F5000394A00E0394A0968102904D0112907D0FC
:102F600012290AD03BE0D2F808C04FEA0C2C08E046
:102F7000D2F808C04FEACC1C03E0D2F808C04FEAF0
:102F80004C2CBCF1000F2ADBBB420DD0B34201D167
:102F900000970CE02A4EDFF8ACC0B34202D1CDF866
:102FA00000C004E0634501D1009600E000959E68F2
:102FB00006F00306012E02D11E68F6070AD1009E14
:102FC0008EB1B66806F00306012E0CD1009E36685D
:102FD000F60708D0416C41F020014164012480F8DB
:102FE000405020468EE6102908D011291AD0122907
:102FF000F5D1916841F480019160F0E7BB42EED1D8
:10300000916841F4000191600F49104A0968B1FBD1
:10301000F2F101EB8101490000E0491E0091002915
:10302000FBD1DCE7BB42DAD1916841F08071E3E784
:1030300000F0FF8300010050000300500007005023
:1030400000040050000500508002002040420F00A4
:103050000068006C70470000F0B54FF0000695B0B6
:10306000040037463546009605D0606CC00648D44B
:10307000606C18B133E0012015B0F0BDA564256582
:10308000E56484F84050204600F00AF92068806822
:10309000C00024D42046FFF75DFC0646606CC006E5
:1030A0001DD4E6B9606C20F4885040F002006064E2
:1030B0002068816821F0405181602068816841F07A
:1030C000805181606D486E490068B0FBF1F000EB03
:1030D0008000400000E0401E00900028FBD12068E6
:1030E0008168C90002D5806880000AD5606C20F034
:1030F000020040F010006064A06C40F00100A06489
:103100000126606CC00675D4002E73D120688168DA
:1031100049076FD4616C21F4807141F00201616450
:103120004FF0A04E574B704501D0984201D1564AFE
:1031300000E0564ADFF858C15649704501D1009366
:103140000EE0984202D1CDF800E009E0884202D1B9
:10315000CDF800C004E0604501D1009100E0009589
:10316000836803F00303012B02D10068C00710D16C
:10317000009840B1806800F00300012803D1009856
:103180000068C00705D19068636820F44030184398
:103190009060D4E902201043A26B012A02D04FF4C0
:1031A000805300E00023E26943EA42331843636A34
:1031B0003843012B0AD1F2B1626C22F0020242F0D4
:1031C00020026264A26C42F00102A264E26A012A57
:1031D00021D023688B4201D0634518D14FF430775A
:1031E0004FF4E071BA4213D04FF480739A420AD17F
:1031F00039460DE038E0228D274B03EB4242024373
:1032000042F48030E2E78A4201D1194600E01146DB
:103210000143206B084321688A6812F00C0F0AD121
:10322000CA6844F202039A43CA60A169626B8903C7
:1032300041EA420108432268D168184B1940014312
:10324000D160206901282068016B21F00F0102D1B3
:10325000226A521E11430163A564606C20F00200D3
:1032600040F00100606406E0606C20F0020040F075
:103270001000606401263046FEE600008002002057
:1032800040420F00000100500003005000070050B2
:1032900000050050000400500000FEFF07C0F0FFD2
:1032A00000B5006887B0B0F1A04F13D10A4841695A
:1032B00041F0805141614069694600F080500590BD
:1032C0000220009003200190002002904FF09040D7
:1032D00000F0F6FF07B000BD001002402DE9F047F6
:1032E0000D46044641693F4A00684FF000084FF020
:1032F000A043082905D0984201D0904203D13A4911
:1033000002E0082614E039498E68F6060CD0896878
:1033100001F4404159B1606C40F02000606484F8D1
:1033200040800120BDE8F087C168C907F2E70C269C
:10333000984201D0904202D1D3F8081302E02B4901
:103340000831096811F01F0F04D0984202D02849B3
:10335000884201D1C76803E0904200D11946CF6886
:1033600001F07CF8814610E0681C0ED02DB101F010
:1033700075F8A0EB0900A84207D9606C40F0040082
:10338000606484F840800320CCE720680068304205
:10339000EAD0606C40F4007060642068C16811F489
:1033A000406F1AD1B90418D40168090715D581688E
:1033B0004907616C0AD421F480716164616CC904AD
:1033C0000BD4616C41F00101616406E041F0200121
:1033D0006164A16C41F00101A164790400D406602C
:1033E00000209FE70001005000030050000700503C
:1033F000000400502DE9F041044600688068400751
:1034000070D494F8400001280CD0012084F84000CA
:103410002046FFF7D1FA03004FF0000605D084F8EC
:10342000406086E00220BDE8F081606C40F60161FA
:10343000884340F48070606420684FF0A0413E4AA9
:103440003E4D884201D0904202D1D1F8087300E08D
:103450002F6817F01F0F3A4F03D0884201D0B842AF
:103460000BD1D4F844C02CF4801CC4F844C0D0F86C
:103470000CC05FEA8C1C14D41BE0D4F844C04CF49C
:10348000801CC4F844C0904202D1D1F80CC005E0C1
:10349000DFF8ACC00CF10C0CDCF800C01CF0007FB5
:1034A00007D0D4F844C02CF4005C4CF4805CC4F821
:1034B00044C0D4F844C05FEACC4C06D5D4F848C028
:1034C0002CF0060CC4F848C000E0A66484F8406004
:1034D0001C2606602068884201D0904203D1D1F8B2
:1034E000084301E024E02C6814F01F0F1BD0884231
:1034F00001D0904202D1D1F8084300E02C6804F0DA
:103500001F04052C0FD0884201D0904202D1D1F87F
:10351000082300E02A6802F01F02092A03D088422B
:1035200001D0B84205D1816841F00401816000E01A
:103530000223184677E700000001005008070050FA
:1035400000040050F0B50B7D01229A400368D3F8C7
:10355000004244F00104C3F800420368D3F81C425F
:103560009443C3F81C424FF41073CD691C1DBDB9C0
:103570000568D5F80C629643C5F80C628E894D68D3
:103580004F6966F31F45066803EBC707F5510E89BF
:103590000D684F6966F31F45066804EBC707F551D0
:1035A000CD69012D17D10568D5F80C621643C5F811
:1035B0000C620E884D684F6966F31F45066803EB81
:1035C000C703F5500D89CB684E6965F31F43056845
:1035D00004EBC6042B518B69002B0368D3F804421B
:1035E00005D01443C3F804420B6913B107E09443B8
:1035F000F8E70368D3F814429443C3F814420B6904
:10360000012B05D10368D3F814421443C3F81442C4
:10361000096A012905D10168D1F81C321343C1F8A8
:103620001C320068D0F8001221F00101C0F800122D
:103630000020F0BD7047000010B5044600684169E5
:10364000C943C9070ED182684E49914307D08268A9
:103650004D49914303D081684C48884302D12046AC
:10366000FFF772FA20684169C943890706D4C06828
:10367000800703D000212046FFF7CEF9206841697A
:10368000C943C90606D40069800703D0012120463A
:10369000FFF7C2F920688169C9070BD04169C943A6
:1036A000C90507D44169C943090403D4E16B41F05A
:1036B0000101E163816989070BD54169C943890526
:1036C00007D44169C943090403D4E16B41F0020105
:1036D000E163816949070BD54169C943490507D4AD
:1036E0004169C943090403D4E16B41F00401E1637A
:1036F000816911F0700F25D04169C943090521D4B2
:103700004169C94309041DD4816901F07001402950
:103710002BD006DC102909D020290BD030290DD15F
:103720001FE0502925D0602908D126E0E16B41F047
:10373000080102E0E16B41F01001E163816921F0D1
:1037400070018161E06B00280AD02068416841F077
:1037500004014160012084F839002046FFF76AFF28
:1037600010BDE16B41F02001E7E7E16B41F0400162
:10377000E3E7E16B41F08001DFE7E16B41F4807149
:10378000DBE7000003000004000300080000031052
:103790002DE9F041040004D094F83900002518B157
:1037A00007E00120BDE8F08184F83850204600F0A1
:1037B00095F8022084F839002068016821F00201A0
:1037C00001602068016841F00101016000F046FEDF
:1037D0000746032605E000BF00F040FEC01B0A2894
:1037E00063D820684068C007F6D020684168C907E0
:1037F00069D0A169012901683FD021F080010160F1
:10380000E0690128206801683AD021F04001016098
:10381000206A01282068016835D021F0200101606C
:10382000606A01282068016830D021F01001016031
:10383000A06A0128206801682BD021F008010160EE
:10384000E06A01282068016826D021F004010160A7
:10385000D4E902010843D4E9041211430843616822
:10386000491E08432168C8612068016821F00101F0
:10387000016000F0F3FD07461DE041F08001BEE766
:1038800041F04001C3E741F02001C8E741F01001D9
:10389000CDE741F00801D2E741F00401D7E700BFCE
:1038A00000F0DCFDC01B0A2805D984F8396084F8D3
:1038B0003850032076E720684068C007F0D12068C0
:1038C0004068C00703D0042084F8390069E7E56345
:1038D000012084F83900002064E7000000B500688A
:1038E000124987B088421FD11148C16941F0007167
:1038F000C161C069694600F0007005904FF4C05086
:1039000000900220019000200290032003900920E3
:103910000490C00600F0D4FC00221146142001F0EF
:10392000A5F8142001F096F807B000BD006400402F
:103930000010024010B590F83920012A03D090F809
:103940003920122A39D190F83820012A35D00122A5
:1039500080F8382090F83920122A29D05FF022020E
:1039600080F839200022C26303685C6944F48074E3
:103970005C6103685C6944F400745C6103685C69C1
:1039800044F480645C6103685C6944F400645C61D5
:1039900003685C6944F400445C6180F83820006886
:1039A0000029416906D041F010014161002010BD9D
:1039B0003222D5E741F00201F7E7022010BD0000F6
:1039C0002DE9F0410546406B86B000F11001826898
:1039D000D0E90064C768B2F1000837D0A4F52060D0
:1039E00023384FF01402684627D0FDF72BFF3B46E3
:1039F00042462146304607F05FF91A4CC0B2E16BEF
:103A000091F8CD10814211D1E079174A00EBC00145
:103A100002EB8103401CE07124221846696BFDF71C
:103A200011FFE079FF2801D30020E07106B00021EA
:103A3000BDE8F0410D48FFF77DBFFDF703FF3B46B2
:103A400042462146304607F069F9EFE714226846FE
:103A5000FDF7F8FE3B4642462146304607F048F95E
:103A6000E4E7000090000020A4150020641100206D
:103A70002DE9F05F044690F838000E46012813D077
:103A80004FF0010884F8388094F8390022280ED0CD
:103A90005FF0120084F83900216888684FF0000751
:103AA000400106D500250DE00220BDE8F09F322040
:103AB000F0E78868000101D5012503E08868C000AF
:103AC00055D502254FF4C07000EB05100A5802F0DE
:103AD00001020A50216B8A68EAB3D4F800C05CF88E
:103AE00000301343CA68496842EAC1010B434CF8ED
:103AF0000030216B0A7C02F00F020A614FF4C271A0
:103B0000226801EB0511535823F00F03535022682C
:103B10005358D4F830C0DCF810C043EA0C035350BB
:103B2000216B4FF4C47303EB05130A7DD1F8151014
:103B300042EA01222168CA50216B4FF4C67303EB9D
:103B400005130A7ED1F8191042EA01222168CA50F1
:103B500021680A5800E011E042F001020A5000F02A
:103B60007DFC8146DFF884A0DFF884B020E00420EB
:103B700084F8390084F83870012096E722681358D9
:103B8000D1F80CC0098843EA0C0343EA41511150B3
:103B9000AFE7701C0CD02EB100F060FCA0EB090068
:103BA000B04205D9032084F8390084F838707CE7E6
:103BB00095B12068012D816813D00E4888430028F4
:103BC000E7D194F8390032280ED0404684F8390005
:103BD00084F83870002068E7206881682AEA0100CC
:103BE000EDE72BEA0100EAE72220EFE703000004FB
:103BF0000003000800000310704700002DE9F05F8B
:103C00000446F94AF84DF84EF74F0068DFF8D893AC
:103C1000DFF8D4A3DFF8D0B3D114783D643E503F31
:103C20004FF4000E4FF4004C4FF40028A9F13C096A
:103C3000AAF1280AABF1140B904221D9EB4A136880
:103C4000A8420FD0B0420FD0B84213D0484513D08D
:103C5000504513D0584501D1724624E0E34A08325A
:103C600090423CD108221EE080221CE0DF4A303224
:103C7000904239D10A4616E0624614E0424612E00C
:103C8000D94A803A1368A842ECD0B042ECD0B8428E
:103C9000F0D04845F0D05045F0D05845DCD0D24A5D
:103CA0009042DBD10205134279D00268D243120759
:103CB00075D4026822F008020260CB4A2068904264
:103CC00032D9A84219D0B0421DD0B84228D04845B8
:103CD00023D0504523D058450BD1714620E0C34A2C
:103CE0001C329042C2D1BFE7C04A44329042C5D193
:103CF000C2E7BE4A0832904201D1082110E0BB4A17
:103D00001C32904201D180210AE0B84A3032904200
:103D100006D0B6494431884201D1614600E04146AF
:103D2000B248001D01602CE0A84214D0B04218D067
:103D3000B84223D048451ED050451ED0584501D129
:103D400071461BE0904202D14FF0006116E0A74A95
:103D50000832904201D1082110E0A44A1C3290425E
:103D600001D180210AE0A14A3032904206D09F4919
:103D70004431884201D1614600E041469A4880388A
:103D80004160A06B40F00100A063042084F8210092
:103D9000002084F82000216B09B120468847924A10
:103DA000206811154FF4800E4FF4804C4FF480289A
:103DB000904221D98D4A1368A8420FD0B0420FD04B
:103DC000B84213D0484513D0504513D0584501D1BF
:103DD000724624E0854A083290423FD104221EE018
:103DE00040221CE0814A303290423CD10A4616E023
:103DF000624614E0424612E07B4A803A1368A842C9
:103E0000ECD0B042ECD0B842F0D04845F0D05045AC
:103E1000F0D05845DCD0744A9042DBD1C204134242
:103E200075D00268D243520771D40268920603D457
:103E3000026822F0040202606B4A2068904232D984
:103E4000A84219D0B0421DD0B84228D0484523D04E
:103E5000504523D058450BD1714620E0634A1C32AF
:103E60009042BFD1BCE7614A44329042C2D1BFE721
:103E70005E4A0832904201D1042110E05B4A1C32B4
:103E8000904201D140210AE0584A3032904206D097
:103E900056494431884201D1614600E041465348C9
:103EA000001D01602CE0A84214D0B04218D0B842E6
:103EB00023D048451ED050451ED0584501D17146EB
:103EC0001BE0904202D14FF0806116E0474A083271
:103ED000904201D1042110E0444A1C32904201D1A9
:103EE00040210AE0414A3032904206D03F494431F5
:103EF000884201D1614600E041463B48803841603C
:103F0000112084F82100E16A09B120468847364A29
:103F1000206851154FF4005C4FF4003E904228D9C0
:103F2000324B1B68A84212D0B04213D0B8421AD00C
:103F300048451AD050451AD0584502D14FF40018C0
:103F40002AE0DFF8A88008F10808404544D14FF086
:103F5000020821E04FF020081EE0DFF8908008F111
:103F60003008404544D1884616E0E04614E0F0466B
:103F700012E01D4B803B1B68A842E8D0B042E9D05C
:103F8000B842F0D04845F0D05045F0D05845D5D093
:103F90009042D6D14FF0007813EA080F70D0036832
:103FA000DB439B077FD403689B0603D4036823F09D
:103FB000020303602068904239D9A84221D0B04260
:103FC00025D0B8422FD048452AD050452AD0584550
:103FD00013D14FF4001126E0DFF8108008F11C081F
:103FE0004045BAD1B6E7000080000240000402401C
:103FF000DFF8B8804045BAD1B7E72C4A3C3A904246
:1040000001D102210FE0294A283A904201D1202112
:1040100009E0264A143A904205D02449884201D149
:10402000614600E071462148403801602CE0A8421A
:1040300015D0B04219D0B84224D048451ED05045C2
:104040001FD0584502D14FF400111BE0904202D11D
:104050004FF0007116E0154A3C3A904201D102211E
:1040600010E0124A283A904201D120210AE00F4A7A
:10407000143A904206D00D49884202D1614601E0CF
:1040800011E071460A484160A06BA063012084F8EA
:104090002100002084F82000A16A002903D02046D6
:1040A000BDE8F05F0847BDE8F09F0000440402400F
:1040B0000000024070B520B190F82110002411B129
:1040C00003E0012070BD80F82040022180F821101B
:1040D00003681A6843F6F0718A43D0E90115294351
:1040E000D0E9035635432943456929438569294366
:1040F000C5692943114319608463012180F82110A7
:10410000002070BD70B5044690F82000012823D02F
:10411000012084F82000022084F82100206805682E
:1041200025F0010505602046FEF744FD2068016882
:1041300041F0020101602068016841F00401016062
:104140002068016841F0080101602068016841F0C1
:1041500001010160002070BD022070BD31B500F08A
:104160007DF9044600F07AF90099001B8842F9D3E2
:1041700038BD00002DE9F047054626480F460126C8
:10418000017E01290FD00121814601762868DFF8E0
:1041900088804CF25034012808D0A2462046FEF711
:1041A00065FDA0B130E00220BDE8F0872046FEF7B3
:1041B0005DFD00BBFEF70EFD2046FEF757FDD8F86B
:1041C0001010064621F00401C8F810101CE04FF052
:1041D000FF3038606C6811E02046FEF70DFD504658
:1041E000FEF744FDD8F81010060021F00201C8F8CF
:1041F000101001D03C6007E004F50064D5E901012E
:1042000000EBC120A042E7D8002189F81810304601
:10421000CAE70000A0020020002002402DE9F05F64
:1042200007461C4888460024017E15461E46012983
:1042300009D00121814601764CF2503A5046FEF7F2
:1042400015FD18B122E00220BDE8F09F012F02D039
:10425000022F00D00427D346DFF83CA022012846D5
:104260003146FDF7DFFA81B208EB4400FEF7D6FCD9
:104270005846FEF7FBFCDAF8102022F00102CAF8DB
:10428000102018B9641CE4B2BC42E7D3002289F8BC
:104290001820D9E7A002002000200240054801694B
:1042A000090605D504494160044941600020704772
:1042B000012070470020024023016745AB89EFCD04
:1042C0002DE9F84FDFF864B100234FF0010C4FF0F7
:1042D000030A4FF00F090BF1040EA0E00CFA03F6ED
:1042E000324072D04C68022C01D0122C0ED1DC0866
:1042F00000EB8408D8F820405D07EF0E09FA07F5B7
:10430000AC430D69BD402543C8F8205007685D00E7
:1043100091F804800AFA05F408F00308A74308FAA4
:1043200005F848EA0708C0F800804F68012F05D05B
:10433000022F03D0112F01D0122F11D18768D1F88D
:104340000C80A74308FA05F848EA0708C0F8088077
:104350004768B7430E79C6F300169E403E43466059
:10436000C668A6438C68AC403443C4604C68E40023
:1043700054D52F4CA56945F00105A561A46923F02A
:10438000030504F0010400942A4C2E19B4689D071B
:104390002F0F09FA07F5AC43B0F1904F04D0264D2A
:1043A000A84203D1012512E0002510E0234DA842C8
:1043B00001D102250BE0224DA84201D1032506E0E0
:1043C000204DA84202D1042501E027E00525BD408B
:1043D0002543B560DBF800405D464E689443F60324
:1043E00000D514432C60DEF8004075464E689443B7
:1043F000B60300D514432C600C4D08352C684E686C
:104400009443F60200D514432C60084D0C352C68FB
:104410004E689443B60200D514432C605B1C0A68B6
:1044200032FA03F47FF45AAFBDE8F88F000401407C
:10443000001002400000014000040048000800484D
:10444000000C0048001000480069084000D001201E
:1044500070470AB181617047816270470148006806
:10446000704700000000002090F84120202A24D14D
:1044700090F84020012A20D0012280F840202422F8
:1044800080F841200268136823F00103136002687A
:10449000136823F480531360026813680B4313609E
:1044A00001680A6842F001020A60202180F8411088
:1044B000002180F840100846704702207047000035
:1044C00070B5040004D094F84100002510B106E056
:1044D000012070BD84F84050204600F075F924207A
:1044E00084F841002068016821F0010101606068E2
:1044F000216820F0706008612068816821F4004123
:104500008160A06830B1E168012907D040F404401F
:1045100021688860E068022803D006E040F400408B
:10452000F6E721684FF400604860206841680F4A50
:1045300011434160D4E904010843A16940EA012024
:104540002168C860D4E90701084321680860206831
:10455000016841F0010101606564202084F8410098
:10456000256384F84250002070BD000000800002E6
:104570002DE9F84F044690F84100DDF828A01F46C9
:1045800090468B4620287DD194F84000012879D0B0
:10459000012084F84000FFF761FF064601220090E9
:1045A0001923D103204601F041FB48BB222084F8A7
:1045B0004100102084F8420000256564C4F824807E
:1045C00067856563618DFF274FF410504FF0807849
:1045D0004FF00079FF2903D927853A46009033E050
:1045E000618D2185009034E05946204601F00CFB96
:1045F00033E000BF01F044FB18B1606C042848D0E0
:1046000019E02068416A606A421C62620170208D74
:10461000401E0004000C2085618DA1F1010161851F
:104620001BD1608DC8B153460022802120460096E0
:1046300001F0FCFA10B10320BDE8F88F608DFF286F
:1046400004D927853A4600954346CDE7608D2085FD
:10465000009594F828204B46C6E7608D3246002826
:1046600051462046C6D101F04BFB0028C5D1216838
:104670002020C86121684A68084B1A404A6084F8C3
:10468000410000E007E084F8425084F840500020E8
:10469000D2E70120D0E70220CEE7000000E800FECC
:1046A0002DE9F84F044690F84100DDF828A01F4698
:1046B00090468B4620287CD194F8400001287FD07A
:1046C000012084F84000FFF7C9FE06460122009051
:1046D0001923D103204601F0A9FA38BB212084F820
:1046E0004100102084F8420000256564C4F824804D
:1046F00067856563618D4002FF274FF080784FF03A
:104700000079FF2903D927853A46009031E0618D71
:104710002185009032E05946204601F075FA31E0DB
:1047200001F015FB18B1606C042847D018E0606AEE
:10473000411C6162216800788862608D401E60853E
:10474000208D401E0004000C20851BD1608DC8B157
:104750005346002280212046009601F067FA10B1EE
:104760000320BDE8F88F608DFF2804D927853A46DD
:1047700000954346CFE7608D2085009594F828206A
:104780004B46C8E7608D3246002851462046C7D1C7
:1047900001F0B6FA0028C6D120682021C161206846
:1047A0004368084A1340436084F8411084F842503B
:1047B00000E005E084F840500020D2E70120D0E777
:1047C0000220CEE700E800FE70B50068164E122108
:1047D000012203230425154C86B0B0420ED1C0201F
:1047E0008DE82F0069461248FFF76AFDE06940F442
:1047F0000010E061E06900F4001012E00D4EB042DC
:1048000010D14FF4C0608DE82F0069464FF0904002
:10481000FFF756FDE06940F48000E061E06900F4D4
:104820008000059006B070BD0054004000100240AA
:10483000000400480058004070B5040003D0206810
:10484000C068400701D0012070BD607C20B9002005
:104850002074204600F03BF802206074216845F285
:104860005550086020684168626821F007011143D3
:10487000416020688168A2686FF30B011143816079
:10488000E16840F6FF70814203D1216809698142E5
:1048900019D0FFF7E3FD05464FF47A7608E000BF34
:1048A000FFF7DCFD401BB04202D90320607470BDED
:1048B0002068C0684007F3D120680169E2686FF39F
:1048C0000B011143016101206074002070BD70472D
:1048D0002DE9F0410446007C01280AD00126267407
:1048E00002206074FFF7BAFD054600274FF47A787E
:1048F0000BE00220BDE8F081FFF7B0FD401B404512
:1049000003D9032060742774F4E72068C068C043AB
:104910008007F1D521684AF6AA20086066742774DA
:104920000020E7E72DE9F0410446007C012817D07C
:104930000126267402206074E068A0F57061FF39DA
:1049400003D121684AF6AA20086021684CF6CC40C1
:104950000860FFF783FD054600274FF47A780CE0E6
:104960000220BDE8F08100BFFFF778FD401B404505
:1049700003D9032060742774F3E72068C0684007F8
:10498000F2D166742774ECE702480168491C0160A3
:104990007047000000000020074810B5016841F092
:1049A00010010160032000F081F8002000F006F8FB
:1049B00000F018F8002010BD0020024010B5044699
:1049C00007484FF47A710068B0FBF1F000F0C6FFC1
:1049D00000222146501E00F049F8002010BD0000C2
:1049E000800200201A4808B5816941F00101816107
:1049F000806900F001000090032000F057F80022C9
:104A000011466FF00B0000F031F8002211466FF0F4
:104A10000A0000F02BF8002211466FF0090000F0A8
:104A200025F800221146501F00F020F80022114600
:104A3000101F00F01BF800221146901E00F016F81F
:104A40000022BDE808401146501E00F00FB80000DB
:104A50000010024000F01F02012191404009800037
:104A600000F1E020C0F8001170470000F0B40E4BD8
:104A70001B680C46C3F30223C3F10705042D00D9BC
:104A80000425191D072901D2002300E0DB1E0126A1
:104A900006FA05F1491E214099409E40761E1640B7
:104AA0003143F0BC01F07CB90CED00E0064900F0A8
:104AB000070208684FF6FF03184040EA0220034A45
:104AC00010430860704700000CED00E00000FA059C
:104AD0002DE9F84F04460068804DC0036FD5E869A2
:104AE0000026C00008D4E86940F08050E861E86919
:104AF000012600F08050009079480168C90512D461
:104B00000168804641F480710160FFF7A7FC074609
:104B100005E000BFFFF7A2FCC01B642835D8D8F819
:104B20000000C005F6D5286A10F4407053D0A18863
:104B300001F4407181424ED0286A4FF4803191FADD
:104B4000A1F2B2FA82F29700664A4FF001081744C8
:104B500020F44070C7F8008491FAA1F1B1FA81F114
:104B600002EB81010023C1F800342862C00732D073
:104B7000FFF774FC074641F2883A4FF0020907E05C
:104B8000FFF76CFCC11B514502D90320BDE8F88F2B
:104B900099FAA9F1B1FA81F141F040014846B8EB28
:104BA000511F01D129680CE090FAA0F1B1FA81F10E
:104BB00041F04001B0EB511F02D1296A01E015E03C
:104BC000696A99FAA9F0B0FA80F000F01F0008FABB
:104BD00000F21142D4D0286A616820F44070084382
:104BE00028621EB1E86920F08050E8612078C00793
:104BF00005D0286BA16820F00300084328632078C3
:104C0000800705D5286BE16820F44030084328630D
:104C10002078400705D5286B216920F440200843FF
:104C200028632078800605D5286BE16920F0100004
:104C3000084328632068800305D56868A16B20F4C9
:104C40008000084368602078400605D5286B216AFB
:104C500020F02000084328632078000705D5286B42
:104C6000616920F44010084328632078C00605D508
:104C7000286BA16920F44000084328632088800540
:104C800005D56868E16A20F4000008436860207870
:104C9000000605D5E86A616A20F4F8700843E86206
:104CA0002088C00505D5E86AA16A20F47850084339
:104CB000E8622088C00405D5286B216B20F4807041
:104CC000084328632088800405D5286B616B20F495
:104CD000007008432863002058E7000000100240DD
:104CE00000700040000042422DE9F047DFF870817B
:104CF00005460E46D8F8000000F00700B0420CD27E
:104D0000D8F8001021F007013143C8F80010D8F896
:104D1000000000F00700B04277D12878514C80079E
:104D200005D56068A96820F0F00008436060287825
:104D3000C00759D06968012001290DD0022929D066
:104D40005FF0020393FAA3F2B2FA82F242F0200279
:104D5000520904D0226803E04FF40033F2E7626A9C
:104D600093FAA3F3B3FA83F303F01F0398400242CC
:104D70004BD0606820F0030008436060FFF76EFBD3
:104D80006968074641F2883001290DD00229814621
:104D900017D025E04FF00073D4E700BFFFF75EFBAC
:104DA000C11B494501D918E081466068C0F3810004
:104DB0000128F3D118E000BFFFF750FBC11B4945A4
:104DC0000BD86068C0F381000228F5D10CE000BF69
:104DD000FFF744FBC11B494502D90320BDE8F0871A
:104DE000606810F00C0FF3D1D8F80010404601F0C5
:104DF0000701B1420BD9016821F00701314301607D
:104E0000006800F00700B04201D00120E6E72878F2
:104E1000400705D56068E96820F4E06008436060F9
:104E20002878000706D56068296920F4605040EAB8
:104E3000C100606000F076F86168F02292FAA2F298
:104E400001F0F001B2FA82F2D140074A515CC84049
:104E5000064908600020FFF7B1FD0020BEE7000012
:104E60000020024000100240944B01088002002004
:104E70000C48016841F08101016041680A4A114013
:104E800041600168094A11400160016821F48021F4
:104E9000016000214160C1620163816005490448ED
:104EA00008607047001002400CC0FFF8FFFFF6FEDC
:104EB00000127A008002002001480068704700005C
:104EC0008002002008480949006849684FF4E06200
:104ED00092FAA2F201F4E061B2FA82F2D140044AFD
:104EE000515CC84070470000800200200010024062
:104EF000A44B010808480949006849684FF460520A
:104F000092FAA2F201F46051B2FA82F2D140044A5C
:104F1000515CC84070470000800200200010024031
:104F2000A44B0108144B10B55A68144802F00C0148
:104F300004291DD008291BD14FF4701494FAA4F44D
:104F400002F47011B4FA84F4E1400D4CDB6A615C48
:104F50000F2494FAA4F403F00F03B4FA84F4E340AA
:104F6000074C1034D203E35C03D5B0FBF3F04843A5
:104F700010BD0448484310BD0010024000127A00E2
:104F80007A21010800093D002DE9F84F0546007817
:104F9000F74EC0074FF0010425D070686704C0F3D6
:104FA0008100012807D07068C0F3810002281BD15E
:104FB0007068C00318D597FAA7F0B0FA80F040F0F7
:104FC0002000400901D0306800E0706A97FAA7F12C
:104FD000B1FA81F101F01F0104FA01F1084264D035
:104FE000686800287DD060E06868B0F5803F0BD02D
:104FF00010B1B0F5A02F17D0306820F480303060A9
:10500000306820F4802002E0306840F48030306066
:10501000F06AA96820F00F000843F062686828B3BE
:10502000FFF71CFA80460BE0306840F480203060C7
:10503000EAE700BFFFF712FAA0EB0800642871D876
:1050400097FAA7F0B0FA80F040F02000400901D0B4
:10505000306800E0706A97FAA7F1B1FA81F101F0C7
:105060001F0104FA01F10842E4D01EE0FFF7F6F94F
:10507000804605E0FFF7F2F9A0EB08006428DED8CF
:1050800097FAA7F0B0FA80F040F02000400901D074
:10509000306800E0706A97FAA7F1B1FA81F101F087
:1050A0001F0104FA01F10842E4D12878DFF8C48234
:1050B00080074FF0000A4FF0020732D570684FF0BA
:1050C000F80B10F00C0F07D07068C0F381000228B5
:1050D00029D17068C00326D497FAA7F0B0FA80F0FF
:1050E00000E08BE040F02000400901D0306800E093
:1050F000706A97FAA7F1B1FA81F101F01F0104FA81
:1051000001F1084202D02869012877D130689BFA62
:10511000ABF26969B2FA82F220F0F80091400843DC
:1051200030605AE064E1286988B394FAA4F0B0FAD8
:1051300080F048F82040FFF791F9814606E000BF73
:10514000FFF78CF9A0EB0900022898D897FAA7F08E
:10515000B0FA80F040F02000400901D0306800E053
:10516000706A97FAA7F1B1FA81F101F01F0104FA10
:1051700001F10842E4D030689BFAABF220F0F8016C
:105180006869B2FA82F290400143316025E0FFE79E
:1051900094FAA4F1B1FA81F148F821A0FFF75EF981
:1051A000814605E0FFF75AF9A0EB09000228CCD8A8
:1051B00097FAA7F0B0FA80F040F02000400901D043
:1051C000306800E0706A97FAA7F1B1FA81F101F056
:1051D0001F0104FA01F10842E4D1287800076CD5D8
:1051E000A869A8B394FAA4F0B0FA80F008EB8000A4
:1051F000C0F88044FFF732F9814607E08AE100BF3A
:10520000FFF72CF9A0EB090002289ED897FAA7F027
:10521000B0FA80F040F06000B4EB501F01D130686C
:105220000BE097FAA7F0B0FA80F040F06000B7EB1F
:10523000501F01D1306A00E0706A97FAA7F1B1FA05
:1052400081F101F01F0104FA01F21042D8D034E0DC
:10525000FFE794FAA4F1B1FA81F108EB8101C1F8FA
:1052600080A4FFF7FBF8814606E000BFFFF7F6F8E1
:10527000A0EB090002289AD897FAA7F0B0FA80F0BC
:1052800040F06000B4EB501F01D130680BE097FA9A
:10529000A7F0B0FA80F040F06000B7EB501F01D1EA
:1052A000306A00E0706A97FAA7F1B1FA81F101F073
:1052B0001F0104FA01F21042D8D12878400774D5B2
:1052C000F0694FF00009C00009D4F06940F0805047
:1052D000F061F0694FF0010900F08050009026481D
:1052E0000168C90512D4016841F480710160FFF7BB
:1052F000B5F8834606E000BFFFF7B0F8A0EB0B005F
:10530000642875D81C480068C005F5D5E8680128F0
:105310000AD008B1052811D0306A20F001003062AF
:10532000306A20F0040002E0306A40F00100306290
:10533000E868E0B1FFF792F883460DE0306A40F08C
:1053400004003062F0E700BFFFF788F8A0EB0B0124
:1053500041F2883081424BD897FAA7F0B0FA80F03A
:1053600040F04000B4EB501F08D1306812E01DE05F
:1053700000100240000042420070004097FAA7F07F
:10538000B0FA80F040F04000B7EB501F01D1306A16
:1053900000E0706A97FAA7F1B1FA81F101F01F01FC
:1053A00004FA01F21042CFD02EE034E0FFF756F8B5
:1053B000834607E0FFF752F8A0EB0B0141F288307B
:1053C000814215D897FAA7F0B0FA80F040F040007B
:1053D000B4EB501F01D130680CE097FAA7F0B0FA97
:1053E00080F040F04000B7EB501F02D1306A01E07E
:1053F00083E0706A97FAA7F1B1FA81F101F01F0119
:1054000004FA01F21042D5D1B9F1000F03D0F069CE
:1054100020F08050F061E86980B37168C1F38101C8
:10542000022977D04FF080714F00022809D091FAFD
:10543000A1F0B0FA80F048F820A0FFF70FF8054679
:105440005EE0894691FAA1F15046B1FA81F1C24677
:1054500048F82100FFF702F8804605E0FEF7FEFF5E
:10546000A0EB0800022848D897FAA7F0B0FA80F01D
:1054700040F02000400902D0306801E056E0706A38
:1054800097FAA7F1B1FA81F101F01F0104FA01F1D5
:105490000842E3D1D5E908100843716821F474117A
:1054A0000843706099FAA9F0B0FA80F04AF82040F9
:1054B000FEF7D4FF054604E0FEF7D0FF401B0228AC
:1054C0001BD897FAA7F0B0FA80F040F0200040090E
:1054D00001D0306800E0706A97FAA7F1B1FA81F163
:1054E00001F01F0104FA01F10842E5D01EE000BFFF
:1054F000FEF7B4FF401B022802D90320BDE8F88F55
:1055000097FAA7F0B0FA80F040F02000400902D0EE
:10551000306801E00CE0706A97FAA7F1B1FA81F106
:1055200001F01F0104FA01F10842E1D10020E5E792
:105530000120E3E72DE9F041040004D094F85D0078
:10554000002518B107E00120BDE8F08184F85C5027
:10555000204600F04FF8022384F85D30206801688F
:1055600021F040010160E0684FF4E066B04201D9EB
:10557000002101E04FF48051B0F5706F02D0B042CD
:1055800000D0A562276B012227B9B04201D923635D
:1055900000E02263D4E901031843D4E9043633431D
:1055A0001843238B03F400731843E3691843236AF9
:1055B0001843A36A184323681860206B022804D19B
:1055C0002068036843F400630360636B606AA66944
:1055D00018430427E36807EA164633431843084391
:1055E000216848602168E06A0861256684F85D20CA
:1055F0000020A9E7F0B5224B0268002421480221CF
:105600000325052687B09A4224D1826942F480524C
:10561000826180694FF0904700F480500590A0208F
:105620008DE8730069463846FEF74AFE4020009038
:1056300001AA122082E8710069463846FEF740FE52
:105640001020009001AA012082E831006946384606
:10565000049410E00C4B9A420FD1C26942F480428C
:10566000C261C06900F4804005904FF470408DE83D
:10567000730069460548FEF723FE07B0F0BD000041
:105680000030014000100240003800400004004893
:105690002DE9F84F1F4691468A4604460A9EFEF7BA
:1056A000DDFE804694F85C000025012809D04FF00B
:1056B000010B84F85CB094F85D00012804D0022549
:1056C00038E10220BDE8F88FBAF1000F7DD0B9F1C2
:1056D000000FFBD0002FF9D0052084F85D000020DA
:1056E0002066C4F84090A4F84670A4F84470C4F84A
:1056F00038A0E787A787A06A4FF40057B8420AD1BD
:10570000206801684DF6FF72114001602068016851
:1057100041F400510160E0684FF4E061884203D831
:10572000B4F84600012804D92068426822F4805267
:1057300003E02068426842F48052426020680268B8
:10574000520603D4026842F040020260E0688842D8
:1057500040D8A5E010B32068816889071ED5A16BE9
:105760000988C160A06B801CA063E08F401E00040C
:10577000000CE08712D1A06AB8420FD120680168FE
:10578000490706D44168090703D5016841F400714F
:1057900001602068016841F480510160B4F846005E
:1057A00070B120688168C9070AD0C068216C088080
:1057B000206C801C2064B4F84600401EA4F846000B
:1057C000701C07D0FEF74AFE00E0B2E0A0EB080034
:1057D000B04263D2E08F0028BCD1B4F84610002953
:1057E000B8D164E058B321688A68920727D50128A8
:1057F000A06B07D90088C860A06B801CA063E08FF5
:10580000801E05E0421CA26300780873E08F401EF2
:10581000E0870004000C12D1A06AB8420FD12068C2
:105820000168490706D44168090703D5016841F4B6
:10583000007101602068016841F480510160B4F892
:10584000461019B320688268D2071FD0012913D9E6
:10585000C068216C0880206C801C2064B4F846006D
:10586000801E80B2A4F8460001280FD82068416845
:1058700041F48051416009E0027B206C411C2164AD
:105880000270B4F84600401EA4F84600701C07D011
:10589000FEF7E4FDA0EB0800B04201D3032549E088
:1058A000E08F00289ED1B4F8461000299AD1A06A52
:1058B000B84228D1012233461146204600F0EAFAC8
:1058C000B0B9E068B0F5706F206808D0007BADF823
:1058D0000000BDF80000206B022802D013E0C06871
:1058E0000DE0012233461146204600F0D3FA20B1E4
:1058F000206E40F002002066D0E72068007BADF803
:105900000000BDF8000020688168C943C90607D4BB
:10591000216E41F0020121664FF6EF718160012591
:105920003146204600F04DFA08B120202066206E56
:1059300000B1012584F85DB0002084F85C002846A1
:10594000C0E64FF0E0210428086903D020F00400ED
:105950000861704740F00400FAE7704710B5401E38
:10596000B0F1807F01D3012010BD4FF0E0246061D1
:105970000F21601700F014FA0020A06107202061B9
:10598000002010BD10B5FFF7E8FF10BD704710B53F
:10599000040003D094F8690010B107E0012010BDA5
:1059A000002084F86800204600F026F8242084F8BF
:1059B00069002068016821F001010160204600F0C3
:1059C00025FC0128EBD0606A10B1204600F064FB92
:1059D0002068416821F4904141602068816821F08D
:1059E0002A0181602068016841F0010101602046C0
:1059F000BDE8104000F0B4BB00B500680E4987B0A8
:105A0000884217D10D48C16941F40031C161C069B4
:105A1000694600F4003005900C20009002200190AF
:105A20000120029003200390072004904FF0904043
:105A3000FEF746FC07B000BD0044004000100240E5
:105A400070B5044690F86A00202830D169B362B37B
:105A500094F8680001282AD0012084F86800616564
:105A6000A4F858200025E566222084F86A0054F83E
:105A7000643F1048986254F818390F48D862A369F7
:105A80000E481863084654F84C1C1346A669024693
:105A900030462431FEF736FB54F84C0C816841F057
:105AA000400181602577002070BD012070BD02207B
:105AB00070BD0000D961000803620008B3610008EE
:105AC000704770472DE9F041044690F86900984608
:105AD0000D46202846D105B3FAB194F86800012894
:105AE00040D0012084F868000026E666212084F872
:105AF0006900A4F85020A4F852204FF4805700BF4A
:105B0000B4F852004346401EA4F8520000228021FF
:105B1000204600F065FCB8B902E00120BDE8F08144
:105B2000A068B84201D1206980B115F8010B216845
:105B30000885B4F852000028E2D1434600224021F3
:105B4000204600F04DFC30B10320E7E735F8020BAA
:105B5000C0F30800EBE7202084F8690084F868604F
:105B60000020DBE70220D9E701688A69D243920767
:105B700001D400228A6200688169C943C90703D041
:105B8000816941F001018161704700002DE9F04118
:105B90000446006890460E468069C043C0062ED475
:105BA0000025202720688069C043800611D5701C1D
:105BB000F8D02EB1FEF752FCA0EB0800B042F1D9AC
:105BC00084F8417084F8425084F840500320BDE8C6
:105BD000F08121681020C8612068C7612046FFF766
:105BE000C3FF54F8440B4168064A11404160042049
:105BF00044F820096777A57725770120E7E700209B
:105C0000E5E7000000E800FE70B50568049E6C68DA
:105C100005480440C1F3090040EA024018433043FC
:105C20002043686070BD0000009800FC2DE9F04141
:105C30001D4617460E460446DDF8188013E0681C22
:105C400011D02DB1FEF70AFCA0EB0800A8420AD93A
:105C5000202084F84100002084F8420084F84000AD
:105C60000320BDE8F0812068806936EA000004D096
:105C70000020B842E3D00020F3E70120F9E700005C
:105C80002DE9F041002690460F46044620252DE0E0
:105C9000424639462046FFF779FF10B10120BDE8A2
:105CA000F08120688069C04380060ED42068C561F9
:105CB00020684168114A11404160666484F841508F
:105CC00084F8426084F84060E8E72FB1FEF7C6FB35
:105CD000A0EB0800B84209D954F8440F40F0200066
:105CE00044F80409657026700320D8E720688069AD
:105CF000C0434007CCD40020D1E7000000E800FEFC
:105D000070B516460D4604461AE03246294620462E
:105D1000FFF73CFF08B1012070BD25B1FEF79EFBE7
:105D2000801BA8420CD954F8440F40F0200044F8DE
:105D30000409202060700020A0702070032070BD36
:105D400020688069C0438006DFD4002070BD70B534
:105D500016460D4604461CE0324629462046FFF70B
:105D600015FF08B1012070BD681C12D025B1FEF7E7
:105D700075FB801BA8420CD954F8440F40F020005A
:105D800044F80409202060700020A07020700320D7
:105D900070BD20688069C0438007DDD4002070BDDD
:105DA0000907090E002806DA00F00F0000F1E020D4
:105DB00080F8141D704700F1E02080F8001470474F
:105DC000704770B50D460B46044600224FF4C05193
:105DD00000F00FF838B92B4600228021204600F051
:105DE00059F8002804D0206E40F0200020660320DF
:105DF00070BD2DE9F8431D4617460E460446FEF7D2
:105E00002DFB80464FF4C0693DE04E4505D127B9D2
:105E1000007B8DF800009DF80000681C33D02DB188
:105E2000FEF71CFBA0EB0800A8422CD320684168B9
:105E300021F0E00141606068B0F5827F0BD1A0687D
:105E4000B0F5004F02D0B0F5806F04D12068016832
:105E500021F040010160A06AB0F5005F0AD120681E
:105E600001684DF6FF72114001602068016841F43D
:105E700000510160012084F85D00002084F85C007E
:105E80000320BDE8F883206881683140B942BCD165
:105E90000020F6E72DE9F0411D4616460F46044660
:105EA000FEF7DCFA804635E0681C33D02DB1FEF7F2
:105EB000D5FAA0EB0800A8422CD32068416821F055
:105EC000E00141606068B0F5827F0BD1A068B0F559
:105ED000004F02D0B0F5806F04D12068016821F036
:105EE00040010160A06AB0F5005F0AD12068016836
:105EF0004DF6FF72114001602068016841F40051C5
:105F00000160012084F85D00002084F85C0003201B
:105F1000BDE8F081206880683840B042C4D10020DC
:105F2000F6E7704710B5FEF72FFDBDE81040FFF70C
:105F300029BD70B59EB00B20009001211025CDE940
:105F400004154FF4803000240691CDE901040226A7
:105F5000CDE907604FF4E01009906846FFF714F8A8
:105F600000B1FEE70F20CDE919064FF48060CDE9BE
:105F70001B40022119A81D94FEF7B6FE00B1FEE7F2
:105F8000E2200A904FF4807013900D942020CDE908
:105F900011500AA8FEF79CFD00B1FEE7FEF78CFF4A
:105FA0004FF47A71B0FBF1F0FFF7D8FC0420FFF753
:105FB000C8FC00221146501EFEF758FD1EB070BDF1
:105FC00030B516494868164A10F00C03154803D03E
:105FD000042B01D0082B01D0026015E04B684C68FF
:105FE00003F470134FF0020514F4803F05EB934364
:105FF00007D0CC6A04F00F04641CB2FBF4F25A43DD
:10600000EAE7094A534303604968084AC1F30311A8
:10601000515C0268CA40026030BD000000100240BE
:1060200000127A008002002000093D00944B010814
:106030001448016841F4700101601348016841F09F
:10604000010101604168114A114041600168104A34
:1060500011400160016821F480210160416821F450
:10606000FE014160C16A21F00F01C162016B094A62
:1060700011400163002181600249C003803908603A
:106080007047000088ED00E0001002400CC07FF86F
:10609000FFFFF6FECCFC00FF90F82410C90706D0E5
:1060A00001684A68836A22F400321A434A6090F811
:1060B0002410890706D501684A68C36A22F4803231
:1060C0001A434A6090F82410490706D501684A68C7
:1060D000036B22F480221A434A6090F824100907C7
:1060E00006D501684A68436B22F400421A434A60AD
:1060F00090F82410C90606D501688A68836B22F4DB
:1061000080521A438A6090F82410890606D50168E7
:106110008A68C36B22F400521A438A6090F82410F4
:10612000490611D501684A68036C22F480121A43AB
:106130004A60016CB1F5801F06D101684A68436C62
:1061400022F4C0021A434A6090F82410090606D5CA
:1061500001684A68806C22F4002202434A6070475A
:1061600070B500250446C566006800684FF47A766D
:10617000000707D5334600224FF40011204600F0F7
:106180002FF958B920680068400709D53346002226
:106190004FF48001204600F023F908B1032070BDC0
:1061A000202084F8690084F86A0084F86850002090
:1061B00070BD10B5406A0021A0F85A10A0F8521026
:1061C000202180F8691080F86A10C16E41F010013A
:1061D000C166FFF7DBFB10BD10B50146406A0968D8
:1061E000096889060AD40021A0F85A1001688A6853
:1061F00022F040028A60202180F86A10FFF760FCDC
:1062000010BD10B5406AFFF75CFC10BD2DE9F041F0
:10621000044610202369A268E6691A4363690021D5
:1062200033431A4323680D461E6849F20C67BE4388
:1062300016431E6022685368E66823F440533343D4
:106240005360236AA2691A4323689E6826F4306665
:1062500016439E605A4F22685A4B0603BA420CD12D
:106260001B6B13F0030306D0012B4DD0022B4DD036
:10627000032B4CD146E0012049E0534FBA420CD1E8
:106280001B6B13F440333BD0B3423DD0B3F5003F1A
:106290003CD0B3F5403F3AD134E04C4FBA420DD137
:1062A0001B6B13F440232BD0B3F5802F2CD0B3F508
:1062B000002F2BD0B3F5402F29D123E0444FBA4211
:1062C0000DD11B6B13F440131AD0B3F5801F1BD0F4
:1062D000B3F5001F1AD0B3F5401F18D112E03D4F9F
:1062E000BA4214D11B6B13F4400309D0B3F5800FED
:1062F0000AD0B3F5000F09D0B3F5400F07D101E084
:10630000002004E0022002E0042000E00820E76909
:106310004FF400439F4226D109281DD2DFE800F048
:106320000508121C151C1C1C1800FEF7CBFD01E013
:10633000FEF7E0FD4100606801EB5001B1FBF0F0B9
:1063400081B20AE024496068F6E7FEF7EBFDF1E769
:10635000606806EB5001F1E7012521F00F00C1F361
:10636000420108431CE0092825D2DFE800F00508B7
:106370000B24102424241C00FEF7A4FD09E0FEF7E2
:10638000B9FD06E01549606801EB50010EE0FEF72B
:10639000C9FD0146606801EB5001B1FBF0F080B22D
:1063A0002168C86008E0606803EB5001B1FBF0F0C1
:1063B00080B2D06000E001252846BDE8F0810000F1
:1063C00000380140001002400044004000480040F6
:1063D000004C0040005000400024F40000127A00FD
:1063E0002DE9F0471D4690460E460446FEF736F866
:1063F00007465FEA08004FF000094FF0200808D078
:1064000032E0681C05D095B1FEF728F8C01BA84201
:106410000DD82068C06936EA0000F2D129E0681C76
:1064200022D025B1FEF71AF8C01BA8421CD920685B
:10643000016821F0800101602068016821F02001DD
:1064400001602068016821F4807101602068816822
:1064500021F00101816084F8698084F86A8084F801
:1064600068900320BDE8F0872068C06936EA000024
:10647000D5D00020F6E700000148FDF7DDB80000A8
:10648000641100207CB5044600201D4616460029F4
:106490000BD0491ECDE90041044B6A4629463046DF
:1064A00000F05EFC009A002111707CBD8F74000822
:1064B00010EE101A0023036021F00042B2F1FF4FEA
:1064C000A8BF7047002A08BF7047B2F5000F0ADA6C
:1064D0006FF01603DFED0A0A036020EE200A10EECB
:1064E000101A21F000426FF07D0C0CEBE2521A44BE
:1064F000026021F0FF4040F07C5000EE100A70472F
:106500000000004B10EE102A6FEAD25212F0FF0F7B
:106510001ABFB5EEC00AF1EE10FA704710B5014689
:106520002DED028B10EE100AFBF74FFF08EE100A5C
:1065300018EE100A6FEAD05010F0FF0F19D0B5EE28
:10654000C08AF1EE10FA1EBFB0EE480ABDEC028B15
:1065500010BD022000F034FB00F02AFB10EE101AF0
:1065600018EE100ABDEC028B61F31E0000EE100A5B
:1065700010BD022000F024FB00F012FB10EE101AF8
:1065800018EE100ABDEC028B61F31E0000EE100A3B
:1065900010BD00000000000070B5D94B00242DEDA7
:1065A000020B2DED108BDDE91010984205DA20F07A
:1065B00000429A4201D809D141B19DED100BBDECCA
:1065C000108B02B0BDE8704000F0CEBAB0F5801F6D
:1065D00026DA11430BD0002813DA012000F0F0FA7C
:1065E000BDEC108B02B0BDE8704000F0C9BA0220CB
:1065F00000F0E6FA00F0A0FA51EC100B81F0004137
:106600009EE06FF035049FEDC00B53EC102B9DED19
:10661000100B51EC100BFBF798FCCDE9100108466C
:1066200004EB2051C0F31304B948A1F2FF31204418
:1066300000F4801080F07F6282F04052224301EB30
:1066400020559FEDB50B119253EC102B9DED100BC7
:1066500051EC100BFBF773FC41EC180BA01CC0F3C2
:1066600013009FEDAFDB9FEDB0EBB14E7E440328EE
:106670006CD296ED000B51EC180B53EC102BFBF782
:106680008FFD1DD1002D01BF96ED000BBDEC108BD1
:1066900002B070BD2846FBF739FD41EC180B53ECF6
:1066A0001D2BFBF752FC41EC190B53EC1E2B51EC4C
:1066B000180BFBF74AFC53EC192BFBF79FFB3FE051
:1066C0009FED9D0B51EC180B53EC102BFBF73DFC91
:1066D0009FED9B1B53EC112BFBF734FC41EC190B8A
:1066E00053EC182B51EC180BFBF72FFC53EC192B28
:1066F000FBF72BFC41EC190B002D04BF53EC192BBD
:1067000051EC180B1AD02846FBF700FD41EC1A0B90
:1067100053EC1D2BFBF719FC53EC192BFBF712FC68
:1067200053EC182BFBF70BFC41EC180B53EC1E2B16
:1067300051EC1A0BFBF709FC53EC182BFBF7FFFB92
:10674000BDEC108B02B041EC100B70BD9FED7E0BC9
:1067500051EC180B53EC102BFBF750FB41EC100BDA
:1067600051EC180B53EC102BFBF761FC41EC190BAF
:106770002846FBF7CBFC41EC1B0B53EC192B51ECDF
:10678000190BFBF7E2FB41EC1A0B714853EC1A2B87
:10679000261851EC1A0BFBF7D8FB41EC1F0B6D4888
:1067A000C4F1510404F5D724B0EE4F0AF0EE6F0A9D
:1067B0000321784400F044F953EC1F2B51EC100BEB
:1067C000FBF7C3FB41EC1C0B6348B0EE4F0AF0EE45
:1067D0006F0A0421784400F033F953EC1A2B51EC82
:1067E000100BFBF7B2FB344353EC1C2BFBF706FBFF
:1067F00041EC1C0B002C4CDD9FED510B51EC180BA8
:1068000053EC102BFBF7A1FB53EC182BFBF79DFB74
:1068100041EC1A0B55B353EC1D2B51EC1B0BFBF742
:1068200094FB41EC1D0B53EC1C2B51EC1A0BFBF7AA
:10683000E5FA53EC192BFBF788FB53EC1D2BFBF708
:10684000DDFA53EC1A2BFBF77DFB53EC182BFBF70F
:1068500076FB41EC180B53EC1E2B51EC1B0BFBF79A
:1068600074FB53EC182BFBF76AFB69E753EC1C2B0A
:1068700051EC1A0BFBF7C2FA53EC192BFBF765FB33
:1068800053EC1A2BFBF75EFB53EC182BFBF75AFB70
:1068900056E735B353EC1D2B51EC1B0BFBF755FBA7
:1068A00041EC1A0B53EC1C2B51EC180BFBF747FB7C
:1068B00053EC192BFBF749FB53EC1A2BFBF73FFB6F
:1068C00053EC182BFBF73BFB41EC180B53EC1E2B46
:1068D00051EC1B0BFBF739FB53EC182BFBF72FFB91
:1068E0002EE753EC1C2B51EC180BFBF728FB53EC59
:1068F000192BFBF72AFB53EC182BFBF723FB1FE7A5
:106900000000F07F00000000000000000000504385
:10691000645F090000000000000000000000F03F7C
:10692000763C7935EF39EA3D0000E0FE422EE63F45
:1069300078E5000000000000555555555555D53FE8
:10694000000000000000E03F0000000000000040E8
:1069500086EBF9FFFAE30000F0E30000000000001E
:1069600010B52DED020B2DED088B84B09DED0C0BB9
:1069700051EC100BFBF792FD41EC180B9DED0C0B4D
:1069800053EC182B51EC100BFBF7D9FA41EC190B17
:106990000D989FED290B10F0004F53EC102B51EC8C
:1069A000190B9FED21AB9FED22BB0ED0FBF7F8FB3F
:1069B0000ED953EC1B2B51EC190BFBF7D7FD1CD256
:1069C00014E000BF41EC180B17E0FBF7E9FB06D21F
:1069D00053EC1A2B51EC180BFBF7B1FAF2E753EC1E
:1069E0001B2B51EC190BFBF7C1FD06D853EC1A2BEE
:1069F00051EC180BFBF702FAE4E78DED028B9DEDED
:106A00000C0B18EE901A10EE900A8DED000B61F34E
:106A10001E0003909DED020B04B0BDEC088B02B08C
:106A200010BD000000000000000000000000F03F6A
:106A3000000000000000E03F000000000000E0BF98
:106A400070B504462DED028B4D1E00EBC500B0EE77
:106A5000408AF0EE608A90ED000B35F0060017D00A
:106A600053EC182B51EC100BFBF76FFA41EC100BA9
:106A70006D1E04EBC50090ED001B51EC100B53ECA8
:106A8000112BFBF7BBF941EC100B35F00600E7D1F9
:106A9000022D36D0042D1CD0062D1CBFBDEC028B60
:106AA00070BD53EC182B51EC100BFBF74EFA94ED24
:106AB0000A1B53EC112BFBF7A1F953EC182BFBF736
:106AC00044FA94ED081B53EC112BFBF797F941ECBA
:106AD000100B53EC182B51EC100BFBF736FA94ED1E
:106AE000061B53EC112BFBF789F953EC182BFBF722
:106AF0002CFA94ED040B53EC102BFBF77FF941ECCF
:106B0000100B53EC182B51EC100BFBF71EFA94ED05
:106B1000021B53EC112BFBF771F953EC182BFBF70D
:106B200014FA94ED001B53EC112BFBF767F9BDEC45
:106B3000028B41EC100B70BD9FED070B10B553ECB1
:106B4000102B9FED070B51EC100BFBF770FA41EC8B
:106B5000100B10BD0000000000000000000000004D
:106B6000000000000000F03F10B553EC102B51EC7A
:106B7000100BFBF743F941EC100B10BD00000000B7
:106B80009FED050B10B553EC102B51EC100BFBF7E0
:106B90004EFA41EC100B10BD000000000000000098
:106BA0009FED020A20EE000A70470000000000700E
:106BB0009FED020A20EE000A70470000000000105E
:106BC0000149086070470000980200202DE9FF5F2E
:106BD00082B00021DDE90430020DDDF840B003434E
:106BE00018D044F61050A2F2FF3242431514119807
:106BF00001281FD0A5EB0B00401C5FEA000A4FF0F4
:106C000000064E4FDFF83891B046504615D5CAF110
:106C1000000413E0119801244AA3012801D16FEA6E
:106C20000B010298119AC0E90031C0E9024206B096
:106C3000BDE8F09FCBF10000DFE704460021404AA9
:106C4000491842EB0450CDE9001012E0E00707D0EC
:106C500032463B4640464946FBF777F9804689462F
:106C600032463B4610461946FBF76FF906460F467B
:106C70006410002CEAD1DDE90401DDE90023BAF15A
:106C8000000F06DAFBF761F942464B46FBF75DF968
:106C900005E0FBF7CCF942464B46FBF7C8F9044642
:106CA0000E460022284BFBF761FC03D84FF0FF3063
:106CB000014607E00022254B20463146FBF79EF8AF
:106CC000FBF73CFC102409E0002C0ADB0A2200231D
:106CD000FBF7B0FA039B30321A55641E50EA0102EA
:106CE000F2D1641C039AC4F111031444119A012ACD
:106CF00003D0012208430DD10AE0084304D000204C
:106D00004FF0110B119072E7A3EB0B056D1E0DE018
:106D10005B4504DD4FF0000205F1010504E003DAF4
:106D20004FF00002A5F10105002AECD0029811995C
:106D3000C0E90231C0E9004579E7000000001440D5
:106D40000000F03F300000000000F0430000E03F92
:106D500030380A2801D20120704700207047000017
:106D60002DE9FF4F95B09B468946064600250FE268
:106D7000252877D100242746F84A0121059400E010
:106D8000044316F8013F203B01FA03F01042F7D10B
:106D900030782A2811D06FF02F033078A0F130021C
:106DA000092A16D8059A44F0020402EB820203EB8A
:106DB00042021044761C0590EFE759F8042B059227
:106DC000002A03DA504244F40054059044F00204CF
:106DD000761C30782E2816D116F8010F44F00404E2
:106DE0002A280DD06FF02F023078A0F13003092B44
:106DF00009D807EB870302EB4303C718761CF3E7B8
:106E000059F8047B761C30786C280FD006DC4C28AF
:106E100017D068280DD06A2814D104E0742810D047
:106E20007A280FD10DE044F400140AE044F48014F1
:106E300001E044F440147278824202D104F58014D7
:106E4000761C761C307866280BD013DC582877D057
:106E500009DC002875D04528F6D04628F4D047280C
:106E60001AD19DE118E0632835D0642879D06528CF
:106E700012D195E1702873D008DC6728F1D0692819
:106E80006FD06E280DD06F2806D1B5E073282CD0B6
:106E9000752875D0782874D05A46179990476D1C7C
:106EA00075E1C4F30250022809D003280DD0D9F8A7
:106EB000001004280DD00D6009F1040967E1D9F82C
:106EC0000010EA17C1E90052F6E7D9F800100D806A
:106ED000F2E70D70F0E719F8041B8DF800100020A0
:106EE0008DF80100EA46012003E059F804AB4FF0A9
:106EF000FF3061074FF0000102D40DE008F10101FD
:106F00008846B9420FDA8045F8DB1AF808100029E4
:106F1000F4D108E008F1010188468142FADB1AF851
:106F200008100029F6D105985B46A0EB080721461A
:106F30003846179A00F094FA284400EB080507E059
:106F40004DE029E10DE01AF8010B5A4617999047D8
:106F5000B8F10108F7D25B4621463846179A13E18B
:106F600042E00A220092C4F302524FF0000A022AC1
:106F700008D059F804CB032A4FEAEC710AD00DE08F
:106F800029E02AE009F1070121F00702F2E802C135
:106F9000914609E00FFA8CFC4FEAEC71042A03D108
:106FA0004FFA8CFC4FEAEC71002907DA0A460021FF
:106FB000DCF1000C61EB02012D2202E0220504D578
:106FC0002B228DF80420012203E0E20701D02022C9
:106FD000F7E7904659E00A2102E010220DE0102167
:106FE0004FF0000A00910BE010224FF0000A44F02D
:106FF00004040827009203E008224FF0000A0092E0
:10700000C4F30252022A05D059F804CB0021032A06
:1070100008D009E009F1070121F00702F2E802C1F6
:10702000914605E01FFA8CFC042A01D10CF0FF0CFC
:107030004FF00008220728D5702806D0009B83F067
:10704000100353EA0A0305D00EE040228DF8042015
:10705000012208E05CEA010206D030228DF804200B
:107060008DF8050002229046009B83F0080353EA46
:107070000A030AD15CEA010201D1620705D5302278
:107080008DF804204FF001087F1E582804D034A04A
:1070900003900EA802900DE036A0F9E75346604633
:1070A000009AFBF7C7F884460398825C0298401E5A
